:100000000C9462000C948A000C948A000C948A0070
:100010000C948A000C948A000C948A000C948A0038
:100020000C948A000C948A000C948A000C948A0028
:100030000C948A000C948A000C948A000C948A0018
:100040000C941B030C948A000C948A000C948A0074
:100050000C948A000C948A000C948A000C948A00F8
:100060000C948A000C948A000000000024002700F1
:100070002A0000000000250028002B0000000000DE
:1000800023002600290004040404040404040202DA
:100090000202020203030303030301020408102007
:1000A0004080010204081020010204081020000012
:1000B0000008000201000003040700000000000027
:1000C0000000D20411241FBECFEFD8E0DEBFCDBFA9
:1000D00011E0A0E0B1E0E6E3FAE002C005900D9285
:1000E000A23BB107D9F721E0A2EBB1E001C01D921C
:1000F000A53DB207E1F710E0C2E6D0E004C02197C9
:10010000FE010E941305C136D107C9F70E9465039D
:100110000C9419050C940000AF92BF92CF92DF921D
:10012000EF92FF920F931F93CF93DF936C017B01AC
:100130008B01040F151FEB015E01AE18BF08C0173D
:10014000D10759F06991D601ED91FC910190F081B0
:10015000E02DC6010995892B79F7C501DF91CF9173
:100160001F910F91FF90EF90DF90CF90BF90AF90D5
:100170000895833081F028F4813099F08230A9F01D
:1001800008958730A9F08830C9F08430B1F48091A7
:1001900080008F7D03C0809180008F7780938000E6
:1001A000089584B58F7784BD089584B58F7DFBCF86
:1001B0008091B0008F778093B00008958091B00057
:1001C0008F7DF9CF1F93CF93DF93282F30E0F90174
:1001D000E255FF4F8491F901E656FF4FD491F901A2
:1001E000EA57FF4FC491CC23A9F0162F81110E942A
:1001F000B900EC2FF0E0EE0FFF1FEE58FF4FA59176
:10020000B4918FB7F894EC91111108C0D095DE230A
:10021000DC938FBFDF91CF911F910895DE2BF8CF34
:10022000CF93DF9390E0FC01E656FF4F24918A576D
:100230009F4FFC0184918823D1F090E0880F991F93
:10024000FC01E859FF4FA591B491FC01EE58FF4F16
:10025000C591D49161110EC09FB7F8948C91E22F93
:10026000E0958E238C932881E223E8839FBFDF9162
:10027000CF9108958FB7F894EC91E22BEC938FBF58
:10028000F6CF3FB7F8948091B7019091B801A09153
:10029000B901B091BA0126B5A89B05C02F3F19F04E
:1002A0000196A11DB11D3FBFBA2FA92F982F8827F6
:1002B000BC01CD01620F711D811D911D42E0660FD1
:1002C000771F881F991F4A95D1F70895089590E0E8
:1002D00080E008958F929F92AF92BF920F931F93E9
:1002E000CF93DF93CDB7DEB7A1970FB6F894DEBFFB
:1002F0000FBECDBF19A2423008F44AE08E010F5D57
:100300001F4F842E912CB12CA12CA50194010E9489
:10031000F104E62FB901CA01EA3044F5E05DD801E5
:10032000EE938D01232B242B252B79F790E080E091
:10033000109769F0FD0101900020E9F73197AF01B6
:100340004A1B5B0BBD018DEB91E00E948C00A196D6
:100350000FB6F894DEBF0FBECDBFDF91CF911F91D6
:100360000F91BF90AF909F908F900895E95CD7CF89
:10037000FC0101900020E9F73197AF01481B590BB0
:10038000BC018DEB91E00C948C00CF93DF93EC01DA
:1003900060E08E810E94E20061E08E810E94E200B6
:1003A00060E08E810E94E2008BE891E00197F1F716
:1003B000DF91CF910895CF92DF92EF92FF920F934A
:1003C0001F93CF93DF936C017C0187E0E80EF11C53
:1003D000D0E0C0E0062F10E0B8010C2E02C07595E9
:1003E00067950A94E2F76170F70181917F010E949D
:1003F000E2002196C430D10579F7C601DF91CF9193
:100400001F910F91FF90EF90DF90CF900C94C5015A
:10041000CF92DF92EF92FF920F931F93CF93DF93D0
:10042000EC01F62E642F8C810E94E2008D818F3FBB
:1004300019F060E00E94E2000F2D10E08F8584FF2C
:1004400025C06E0187E0C80ED11CF12CE12CB8014B
:100450000E2C02C0759567950A94E2F76170F6015B
:1004600081916F010E94E200FFEFEF1AFF0A88E01E
:10047000E816F10461F7CE01DF91CF911F910F9142
:10048000FF90EF90DF90CF900C94C501B80184E00D
:10049000759567958A95E1F7CE010E94DB016F2D76
:1004A000CE01DF91CF911F910F91FF90EF90DF90E0
:1004B000CF900C94DB0140E0682F8DEB91E00C9421
:1004C0000802CF93DF93613029F09091CC019860BE
:1004D0009093CC016093D0011092D10190E490935D
:1004E000D2018093D301805C8093D40161E080913C
:1004F000C1010E9410018091C2018F3F19F061E09B
:100500000E94100161E08091C3010E941001CDEBB7
:10051000D1E09E012D5B31408091CC0184FD0BC068
:1005200084E090E021962817390744F461E08E8139
:100530000E941001EECF88E090E0F4CF8BE39DE0C5
:100540000197F1F760E08091C1010E94E20060E054
:100550008091C3010E94E2008091C2018F3F19F097
:1005600060E00E94E2008091CC0184FD39C063E02C
:100570008DEB91E00E94DB01CBE4D6E4CE01019744
:10058000F1F763E08DEB91E00E94DB012197F1F739
:1005900063E08DEB91E00E94DB0183E592E001973F
:1005A000F1F762E08DEB91E00E94DB018091CC01DC
:1005B00080620E945B0284E08093CD018CE00E9407
:1005C0005B0281E00E945B028BE39FE10197F1F700
:1005D00082E08093CE0186E0DF91CF910C945B02A4
:1005E00080620E945B028BE496E40197F1F78091B0
:1005F000CC0180620E945B0283E592E00197F1F7F3
:100600008091CC0180620E945B02D0CF9091D0019A
:10061000691710F06FEF690FE62FF0E0E354FE4F1B
:100620009489890F80680C945B0241E00E94080263
:1006300081E090E008951F920F920FB60F9211245F
:100640002F933F938F939F93AF93BF938091B30169
:100650009091B401A091B501B091B6013091B20171
:1006600023E0230F2D3758F50196A11DB11D2093CE
:10067000B2018093B3019093B401A093B501B093FC
:10068000B6018091B7019091B801A091B901B091E4
:10069000BA010196A11DB11D8093B7019093B801D5
:1006A000A093B901B093BA01BF91AF919F918F917F
:1006B0003F912F910F900FBE0F901F90189526E835
:1006C000230F0296A11DB11DD2CF789484B582600C
:1006D00084BD84B5816084BD85B5826085BD85B5E6
:1006E000816085BD80916E00816080936E00109264
:1006F00081008091810082608093810080918100DF
:10070000816080938100809180008160809380006F
:100710008091B10084608093B1008091B0008160CD
:100720008093B00080917A00846080937A008091F9
:100730007A00826080937A0080917A008160809351
:100740007A0080917A00806880937A001092C100CC
:1007500060E082E00E94100164E084E10E94610296
:1007600060E080E00E9406038EE091E00E94B80104
:1007700061E080E00E94060383E291E00E94B801FC
:1007800062E080E00E94060388E391E00E94B801E5
:1007900063E080E00E9406038DE491E00E94B801CE
:1007A00023E4322E30EB832E30E0932ECCE9D0E0E0
:1007B00008E810E040E0A42E40E0B42E30927C0027
:1007C00080917A00806480937A0080917A0086FD1F
:1007D000FCCF8091780020917900322F282F309320
:1007E000BC012093BB012F3E82E038070CF09EC075
:1007F0002935E2E03E070CF09CC02139F1E03F07CB
:100800000CF099C02F3F310511F00CF096C091E02B
:1008100080E0223431050CF490E090930001809345
:10082000010163E084E00E9406038DE591E00E94EF
:10083000B80163E084E00E940603C090BB01D09041
:10084000BC010D2C000CEE08FF084AE0C701B60100
:10085000F7FE0EC041E06DE28DEB91E00E940802D0
:1008600066277727CB016C197D098E099F094AE01D
:100870000E946A01809100019091010182309105EE
:1008800009F489C00CF05BC0009709F47DC00197A2
:1008900009F473C061E081E10E940603F4018491D0
:1008A000FE01F490F801E490EE2081F081110E94A5
:1008B000B900EE2DF0E0EE0FFF1FE458FF4FA591B9
:1008C000B4918C91F8228AEA91E011F48EEA91E0D9
:1008D0000E94B8010E9441012B013C0188EEC82E04
:1008E00083E0D82EE12CF12C0E9441016419750996
:1008F00086099709683E734081059105A8F3F1E0E8
:10090000CF1AD108E108F10828EE420E23E0521E6A
:10091000611C711CC114D104E104F10429F7A11474
:10092000B10409F44BCF0E94000048CF95E080E06D
:1009300074CF94E0FCCF93E0FACF92E0F8CF84300C
:10094000910559F09CF0059709F0A4CF63E089E088
:100950000E9406038EE991E006C063E089E00E94F0
:10096000060382E691E00E94B80194CF63E089E03B
:100970000E9406038EE691E0F6CF63E089E00E94D4
:1009800006038AE791E0EFCF63E089E00E94060367
:1009900086E891E0E8CF63E089E00E94060382E9FF
:1009A00091E0E1CFEDEBF1E01382128286E091E07D
:1009B0009183808389E084838FEF858388E08683B9
:1009C00087E0878386E0808785E0818784E082876F
:1009D0001386148615861686178661E080E10C94CE
:1009E0006102A1E21A2EAA1BBB1BFD010DC0AA1FAA
:1009F000BB1FEE1FFF1FA217B307E407F50720F088
:100A0000A21BB30BE40BF50B661F771F881F991F02
:100A10001A9469F760957095809590959B01AC014B
:100A2000BD01CF010895EE0FFF1F0590F491E02D59
:060A30000994F894FFCFC9
:100A360005000000000015038C00670166012020F8
:100A46002A2054657374696E67204D6F6465202A89
:100A5600202000427574746F6E7320746573742061
:100A66002053573D20202000507265737320616E1D
:100A76007920627574746F6E2120202000414443F2
:100A86003D20202020202020202020202020202043
:100A96002000205F5F52494748545F5F2000205F77
:100AA6005F4C454654205F5F2000205F5F20555015
:100AB60020205F5F2000205F5F444F574E205F5F1E
:100AC6002000205F5F204F4B20205F5F2000205FCB
:100AD6005F4E4F4E45205F5F20004F4646004F4E0B
:020AE6002000EE
:107E0000112484B714BE81FFF0D085E080938100F7
:107E100082E08093C00088E18093C10086E0809377
:107E2000C20080E18093C4008EE0C9D0259A86E02C
:107E300020E33CEF91E0309385002093840096BBD3
:107E4000B09BFECF1D9AA8958150A9F7CC24DD24C4
:107E500088248394B5E0AB2EA1E19A2EF3E0BF2EE7
:107E6000A2D0813461F49FD0082FAFD0023811F036
:107E7000013811F484E001C083E08DD089C08234E0
:107E800011F484E103C0853419F485E0A6D080C0E4
:107E9000853579F488D0E82EFF2485D0082F10E0AE
:107EA000102F00270E291F29000F111F8ED06801E7
:107EB0006FC0863521F484E090D080E0DECF843638
:107EC00009F040C070D06FD0082F6DD080E0C81688
:107ED00080E7D80618F4F601B7BEE895C0E0D1E017
:107EE00062D089930C17E1F7F0E0CF16F0E7DF06D8
:107EF00018F0F601B7BEE89568D007B600FCFDCFD4
:107F0000A601A0E0B1E02C9130E011968C91119780
:107F100090E0982F8827822B932B1296FA010C0160
:107F200087BEE89511244E5F5F4FF1E0A038BF0790
:107F300051F7F601A7BEE89507B600FCFDCF97BE46
:107F4000E89526C08437B1F42ED02DD0F82E2BD052
:107F50003CD0F601EF2C8F010F5F1F4F84911BD097
:107F6000EA94F801C1F70894C11CD11CFA94CF0C13
:107F7000D11C0EC0853739F428D08EE10CD085E9AC
:107F80000AD08FE07ACF813511F488E018D01DD067
:107F900080E101D065CF982F8091C00085FFFCCF94
:107FA0009093C60008958091C00087FFFCCF809118
:107FB000C00084FD01C0A8958091C6000895E0E648
:107FC000F0E098E1908380830895EDDF803219F02E
:107FD00088E0F5DFFFCF84E1DECF1F93182FE3DFCA
:107FE0001150E9F7F2DF1F91089580E0E8DFEE27F6
:047FF000FF270994CA
:027FFE00040479
:0400000300007E007B
:00000001FF
