:100000000C945D000C9485000C9485000C94850084
:100010000C9485000C9485000C9485000C9485004C
:100020000C9485000C9485000C9485000C9485003C
:100030000C9485000C9485000C9485000C9485002C
:100040000C9466020C9485000C9485000C94850039
:100050000C9485000C9485000C9485000C9485000C
:100060000C9485000C94850000000008000201003B
:100070000003040700000000000000000000000072
:10008000250028002B0000000000240027002A0083
:10009000040404040404040402020202020203032E
:1000A0000303030301020408102040800102040836
:1000B0001020010204081020750311241FBECFEF89
:1000C000D8E0DEBFCDBF11E0A0E0B1E0ECE7F7E0A3
:1000D00002C005900D92AA32B107D9F721E0AAE239
:1000E000B1E001C01D92AB34B207E1F710E0CDE5FD
:1000F000D0E004C02197FE010E94B603CC35D107A1
:10010000C9F70E94B0020C94BC030C94000090E06C
:10011000FC01EC55FF4F249180579F4FFC018491C7
:10012000882399F090E0880F991FFC01EA57FF4F50
:10013000A591B491FC01E458FF4F859194918FB73C
:10014000F894EC91E22BEC938FBF0895AF92BF929D
:10015000CF92DF92EF92FF920F931F93CF93DF9393
:100160006C017B018B01040F151FEB015E01AE18C2
:10017000BF08C017D10759F06991D601ED91FC91E4
:100180000190F081E02DC6010995892B79F7C50111
:10019000DF91CF911F910F91FF90EF90DF90CF9063
:1001A000BF90AF90089590E0FC01E859FF4F249173
:1001B000FC01EC55FF4F3491FC01E057FF4FE491F7
:1001C000EE23C9F0222339F0233001F1A8F42130C5
:1001D00019F1223029F1F0E0EE0FFF1FE458FF4F34
:1001E000A591B4918FB7F894EC91611126C0309528
:1001F0003E233C938FBF08952730A9F02830C9F0E3
:10020000243049F7809180008F7D03C08091800069
:100210008F7780938000DFCF84B58F7784BDDBCF6D
:1002200084B58F7DFBCF8091B0008F778093B00035
:10023000D2CF8091B0008F7DF9CF3E2BDACF0895D9
:1002400090E080E00895CF93DF93EC0160E08E8131
:100250000E94D30061E08E810E94D30060E08E8115
:100260000E94D3008BE891E00197F1F7DF91CF91E5
:100270000895CF92DF92EF92FF920F931F93CF9347
:10028000DF936C017C0187E0E80EF11CD0E0C0E058
:10029000062F10E0B8010C2E02C0759567950A94E0
:1002A000E2F76170F70181917F010E94D3002196EE
:1002B000C430D10579F7C601DF91CF911F910F911D
:1002C000FF90EF90DF90CF900C942301CF92DF92BC
:1002D000EF92FF920F931F93CF93DF93EC01F62ED3
:1002E000642F8C810E94D3008D818F3F19F060E0D4
:1002F0000E94D3000F2D10E08F8584FF25C06E0172
:1003000087E0C80ED11CF12CE12CB8010E2C02C0E4
:10031000759567950A94E2F76170F60181916F0116
:100320000E94D300FFEFEF1AFF0A88E0E816F104FD
:1003300061F7CE01DF91CF911F910F91FF90EF9068
:10034000DF90CF900C942301B80184E075956795F8
:100350008A95E1F7CE010E9439016F2DCE01DF9120
:10036000CF911F910F91FF90EF90DF90CF900C9461
:10037000390140E0682F83E391E00C946601CF934C
:10038000DF93613029F0909142019860909342018F
:10039000609346011092470190E490934801809346
:1003A0004901805C80934A01809137010E94870057
:1003B000809138018F3F11F00E94870080913901B0
:1003C0000E948700C3E3D1E09E0123533140809116
:1003D000420184FD0AC084E090E021962817390785
:1003E0003CF48E810E948700EFCF88E090E0F5CF4B
:1003F0008BE39DE00197F1F760E0809137010E9467
:10040000D30060E0809139010E94D30080913801CF
:100410008F3F19F060E00E94D3008091420184FD7B
:1004200039C063E083E391E00E943901CBE4D6E474
:10043000CE010197F1F763E083E391E00E94390177
:100440002197F1F763E083E391E00E94390183E5AE
:1004500092E00197F1F762E083E391E00E943901B5
:100460008091420180620E94B90184E0809343013F
:100470008CE00E94B90181E00E94B9018BE39FE109
:100480000197F1F782E08093440186E0DF91CF91FC
:100490000C94B90180620E94B9018BE496E4019743
:1004A000F1F78091420180620E94B90183E592E0F8
:1004B0000197F1F78091420180620E94B901D0CF8B
:1004C00041E00E94660181E090E008951F920F9242
:1004D0000FB60F9211242F933F938F939F93AF9357
:1004E000BF9380912F0190913001A0913101B09183
:1004F000320130912E0123E0230F2D3758F501965C
:10050000A11DB11D20932E0180932F0190933001E6
:10051000A0933101B093320180912A0190912B0177
:10052000A0912C01B0912D010196A11DB11D8093C8
:100530002A0190932B01A0932C01B0932D01BF9120
:10054000AF919F918F913F912F910F900FBE0F9080
:100550001F90189526E8230F0296A11DB11DD2CF3A
:10056000CF93DF93CDB7DEB7A1970FB6F894DEBF78
:100570000FBECDBF789484B5826084BD84B58160A0
:1005800084BD85B5826085BD85B5816085BD80915E
:100590006E00816080936E001092810080918100D6
:1005A00082608093810080918100816080938100CE
:1005B000809180008160809380008091B100846090
:1005C0008093B1008091B00081608093B0008091F1
:1005D0007A00846080937A0080917A0082608093B0
:1005E0007A0080917A00816080937A0080917A000D
:1005F000806880937A001092C10064E084E10E94D8
:10060000BF014CE050E06CE071E083E391E00E94B8
:10061000A600E0914601E23008F063C0E150F0E04E
:10062000ED5CFE4F848980680E94B90140E150E092
:1006300069E171E083E391E00E94A60088EEC82E94
:1006400083E0D82EE12CF12C9AE0492E512C612C1C
:10065000712C20E0A22E20E0B22EE0914601E33082
:1006600008F041C0E150F0E0ED5CFE4F8489806805
:100670000E94B9012FB7F89460912F017091300159
:1006800080913101909132012FBFA70196010E9404
:10069000940319A28E010F5D1F4FCA01B901A30176
:1006A00092010E949403605DF80162938F0121150D
:1006B00031054105510589F7309761F0019000201F
:1006C000E9F73197AF01401B510BB80183E391E08B
:1006D0000E94A600A114B10409F4BFCF0E9400003B
:1006E000BCCFE1E09CCFE2E0BECFE3E3F1E01382D8
:1006F000128284E091E09183808389E084838FEF8C
:10070000858388E0868387E0878386E0808785E02D
:10071000818784E08287138614861586168617865D
:1007200061E080E10C94BF01A1E21A2EAA1BBB1B61
:10073000FD010DC0AA1FBB1FEE1FFF1FA217B307AD
:10074000E407F50720F0A21BB30BE40BF50B661FC3
:10075000771F881F991F1A9469F760957095809587
:1007600090959B01AC01BD01CF010895EE0FFF1FD5
:0C0770000590F491E02D0994F894FFCF5F
:10077C00000000006002A60020011F0148656C6C9F
:10078C006F20576F726C6421004C43442064697372
:0A079C00706C6179207465737400BD
:107E0000112484B714BE81FFF0D085E080938100F7
:107E100082E08093C00088E18093C10086E0809377
:107E2000C20080E18093C4008EE0C9D0259A86E02C
:107E300020E33CEF91E0309385002093840096BBD3
:107E4000B09BFECF1D9AA8958150A9F7CC24DD24C4
:107E500088248394B5E0AB2EA1E19A2EF3E0BF2EE7
:107E6000A2D0813461F49FD0082FAFD0023811F036
:107E7000013811F484E001C083E08DD089C08234E0
:107E800011F484E103C0853419F485E0A6D080C0E4
:107E9000853579F488D0E82EFF2485D0082F10E0AE
:107EA000102F00270E291F29000F111F8ED06801E7
:107EB0006FC0863521F484E090D080E0DECF843638
:107EC00009F040C070D06FD0082F6DD080E0C81688
:107ED00080E7D80618F4F601B7BEE895C0E0D1E017
:107EE00062D089930C17E1F7F0E0CF16F0E7DF06D8
:107EF00018F0F601B7BEE89568D007B600FCFDCFD4
:107F0000A601A0E0B1E02C9130E011968C91119780
:107F100090E0982F8827822B932B1296FA010C0160
:107F200087BEE89511244E5F5F4FF1E0A038BF0790
:107F300051F7F601A7BEE89507B600FCFDCF97BE46
:107F4000E89526C08437B1F42ED02DD0F82E2BD052
:107F50003CD0F601EF2C8F010F5F1F4F84911BD097
:107F6000EA94F801C1F70894C11CD11CFA94CF0C13
:107F7000D11C0EC0853739F428D08EE10CD085E9AC
:107F80000AD08FE07ACF813511F488E018D01DD067
:107F900080E101D065CF982F8091C00085FFFCCF94
:107FA0009093C60008958091C00087FFFCCF809118
:107FB000C00084FD01C0A8958091C6000895E0E648
:107FC000F0E098E1908380830895EDDF803219F02E
:107FD00088E0F5DFFFCF84E1DECF1F93182FE3DFCA
:107FE0001150E9F7F2DF1F91089580E0E8DFEE27F6
:047FF000FF270994CA
:027FFE00040479
:0400000300007E007B
:00000001FF
