:100000000C945D000C9485000C9485000C94850084
:100010000C9485000C9485000C9485000C9485004C
:100020000C9485000C9485000C9485000C9485003C
:100030000C9485000C9485000C9485000C9485002C
:100040000C94BD020C9485000C9485000C948500E2
:100050000C9485000C9485000C9485000C9485000C
:100060000C9485000C9485000000000024002700FB
:100070002A0000000000250028002B0004040404CE
:100080000404040402020202020203030303030342
:10009000010204081020408001020408102001021F
:1000A00004081020000000080002010000030407FB
:1000B0000000000000000000A10411241FBECFEFCB
:1000C000D8E0DEBFCDBF11E0A0E0B1E0E4EDF9E0A3
:1000D00002C005900D92A236B107D9F721E0A2E641
:1000E000B1E001C01D92A338B207E1F710E0CDE501
:1000F000D0E004C02197FE010E94E204CC35D10774
:10010000C9F70E9407030C94E8040C940000AF9216
:10011000BF92CF92DF92EF92FF920F931F93CF93F4
:10012000DF936C017B018B01040F151FEB015E0156
:10013000AE18BF08C017D10759F06991D601ED91EB
:10014000FC910190F081E02DC6010995892B79F78A
:10015000C501DF91CF911F910F91FF90EF90DF903C
:10016000CF90BF90AF90089590E0FC01EC55FF4F09
:100170002491FC01E057FF4F3491FC01E458FF4FFC
:10018000E491EE23C9F0222339F0233001F1A8F4E1
:10019000213019F1223029F1F0E0EE0FFF1FEE5867
:1001A000FF4FA591B4918FB7F894EC91611126C0DF
:1001B00030953E233C938FBF08952730A9F0283017
:1001C000C9F0243049F7809180008F7D03C0809171
:1001D00080008F7780938000DFCF84B58F7784BDD8
:1001E000DBCF84B58F7DFBCF8091B0008F7780937C
:1001F000B000D2CF8091B0008F7DF9CF3E2BDACF07
:10020000CF93DF9390E0FC01E057FF4F2491845897
:100210009F4FFC0184918823D1F090E0880F991FB3
:10022000FC01E859FF4FA591B491FC01EE58FF4F36
:10023000C591D49161110EC09FB7F8948C91E22FB3
:10024000E0958E238C932881E223E8839FBFDF9182
:10025000CF9108958FB7F894EC91E22BEC938FBF78
:10026000F6CF3FB7F8948091630190916401A0911B
:100270006501B091660126B5A89B05C02F3F19F016
:100280000196A11DB11D3FBFBA2FA92F982F882716
:10029000BC01CD01620F711D811D911D42E0660FF1
:1002A000771F881F991F4A95D1F70895089590E008
:1002B00080E00895FC0101900020E9F73197AF013B
:1002C000481B590BBC018BE691E00C948700CF933F
:1002D000DF93EC0160E08E810E94B40061E08E81CA
:1002E0000E94B40060E08E810E94B4008BE891E02F
:1002F0000197F1F7DF91CF910895CF92DF92EF92BE
:10030000FF920F931F93CF93DF936C017C0187E0E3
:10031000E80EF11CD0E0C0E0062F10E0B8010C2E72
:1003200002C0759567950A94E2F76170F7018191B3
:100330007F010E94B4002196C430D10579F7C6012F
:10034000DF91CF911F910F91FF90EF90DF90CF90B1
:100350000C946701CF92DF92EF92FF920F931F935D
:10036000CF93DF93EC01F62E642F8C810E94B400B2
:100370008D818F3F19F060E00E94B4000F2D10E0D6
:100380008F8584FF25C06E0187E0C80ED11CF12C3B
:10039000E12CB8010E2C02C0759567950A94E2F71E
:1003A0006170F60181916F010E94B400FFEFEF1AB6
:1003B000FF0A88E0E816F10461F7CE01DF91CF91E2
:1003C0001F910F91FF90EF90DF90CF900C946701F9
:1003D000B80184E0759567958A95E1F7CE010E9492
:1003E0007D016F2DCE01DF91CF911F910F91FF9075
:1003F000EF90DF90CF900C947D0140E0682F8BE66A
:1004000091E00C94AA01CF93DF93613029F0909191
:100410007A01986090937A0160937E0110927F0137
:1004200090E49093800180938101805C80938201AD
:1004300061E080916F010E940001809170018F3F07
:1004400019F061E00E94000161E0809171010E9459
:100450000001CBE6D1E09E012B56314080917A011C
:1004600084FD0BC084E090E021962817390744F4FE
:1004700061E08E810E940001EECF88E090E0F4CF31
:100480008BE39DE00197F1F760E080916F010E949E
:10049000B40060E0809171010E94B400809170010D
:1004A0008F3F19F060E00E94B40080917A0184FDD2
:1004B00039C063E08BE691E00E947D01CBE4D6E495
:1004C000CE010197F1F763E08BE691E00E947D0198
:1004D0002197F1F763E08BE691E00E947D0183E5CF
:1004E00092E00197F1F762E08BE691E00E947D01D6
:1004F00080917A0180620E94FD0184E080937B01FB
:100500008CE00E94FD0181E00E94FD018BE39FE1F0
:100510000197F1F782E080937C0186E0DF91CF9133
:100520000C94FD0180620E94FD018BE496E401972A
:10053000F1F780917A0180620E94FD0183E592E0EB
:100540000197F1F780917A0180620E94FD01D0CF7E
:1005500090917E01691710F06FEF690FE62FF0E0C0
:10056000E559FE4F9489890F80680C94FD0141E0A4
:100570000E94AA0181E090E008951F920F920FB6A9
:100580000F9211242F933F938F939F93AF93BF9319
:100590008091670190916801A0916901B0916A0111
:1005A0003091620123E0230F2D3758F50196A11DEC
:1005B000B11D209362018093670190936801A0931D
:1005C0006901B0936A018091630190916401A091E7
:1005D0006501B09166010196A11DB11D8093630173
:1005E00090936401A0936501B0936601BF91AF91B0
:1005F0009F918F913F912F910F900FBE0F901F9061
:10060000189526E8230F0296A11DB11DD2CFCF93D6
:10061000DF93CDB7DEB7A1970FB6F894DEBF0FBE5C
:10062000CDBF789484B5826084BD84B5816084BD7B
:1006300085B5826085BD85B5816085BD80916E0080
:10064000816080936E0010928100809181008260B1
:1006500080938100809181008160809381008091EE
:1006600080008160809380008091B10084608093DD
:10067000B1008091B00081608093B00080917A00D9
:10068000846080937A0080917A00826080937A00FF
:1006900080917A00816080937A0080917A008068EE
:1006A00080937A001092C10060E082E00E94000115
:1006B00061E08EE00E94000161E08EE00E94B400E3
:1006C00061E08FE00E94000161E08FE00E94B400D1
:1006D00061E080E10E94000161E080E10E94B400DD
:1006E00064E084E10E94030260E080E00E94A802CE
:1006F0008CE091E00E945A0161E080E00E94A80233
:1007000081E291E00E945A0162E080E00E94A8022A
:1007100086E391E00E945A0163E080E00E94A80213
:100720008BE491E00E945A019AE0492E512C612CF1
:10073000712C20E0222E20E0322E23E420937C0036
:1007400080917A00806480937A0080917A0086FD9F
:10075000FCCF90917800809179008927982789278C
:100760008F3EE2E09E07BCF561E08935F2E09F072D
:100770000CF0D2C0813921E092070CF0C4C08F3F49
:10078000910511F00CF09EC0823491050CF085C0EB
:1007900087E00E94A8028FE191E00E945A0161E087
:1007A0008EE00E94B40062E087E00E94A80280E62A
:1007B00091E00E945A0160E08FE00E94B40063E083
:1007C00087E00E94A8028FE191E00E945A0161E057
:1007D00080E10E94B40063E080E00E94A8022FB78D
:1007E000F89460916701709168018091690190911E
:1007F0006A012FBF28EE33E040E050E00E94C004C1
:1008000019A28E010F5D1F4FCA01B901A301920108
:100810000E94C004605DF80162938F0121153105CB
:100820004105510589F7309761F001900020E9F703
:100830003197AF01401B510BB8018BE691E00E944C
:1008400087000E9431014B015C0188EEC82E83E0D5
:10085000D82EE12CF12C0E943101681979098A09FE
:100860009B09683E734081059105A8F3F1E0CF1A1A
:10087000D108E108F10828EE820E23E0921EA11CA7
:10088000B11CC114D104E104F10429F7211431048D
:1008900009F453CF0E94000050CF87E00E94A802C5
:1008A0008FE191E00E945A0161E08EE00E94B40065
:1008B00062E087E00E94A8028FE191E00E945A0165
:1008C00061E07ACF87E00E94A80280E691E00E9472
:1008D0005A0160E08EE00E94B40062E087E00E946E
:1008E000A80280E691E00E945A0160E08FE00E9439
:1008F000B40063E087E00E94A80280E691E00E94D5
:100900005A0160E065CF87E00E94A80280E691E08E
:100910000E945A0160E0C9CF87E00E94A8028FE1DF
:1009200091E00E945A0161E08EE00E94B40062E012
:1009300087E00E94A8028FE191E00E945A0161E0E5
:10094000D5CFEBE6F1E01382128284E091E091834F
:10095000808389E084838FEF858388E0868387E0C6
:10096000878386E0808785E0818784E0828713869D
:10097000148615861686178661E080E10C940302C2
:10098000A1E21A2EAA1BBB1BFD010DC0AA1FBB1F93
:10099000EE1FFF1FA217B307E407F50720F0A21B05
:1009A000B30BE40BF50B661F771F881F991F1A9472
:1009B00069F760957095809590959B01AC01BD019C
:1009C000CF010895EE0FFF1F0590F491E02D0994DB
:0409D000F894FFCFC9
:1009D40000000000B70287005701560120202A209A
:1009E40054657374696E67204D6F6465202A2020F6
:1009F4000050726573733A2820294C454654202DC3
:100A0400414C41524D002020202020202820294400
:100A14004F574E202D50554D50200020202020208F
:100A24002028202952494748542D56414C56450008
:020A3400580068
:107E0000112484B714BE81FFF0D085E080938100F7
:107E100082E08093C00088E18093C10086E0809377
:107E2000C20080E18093C4008EE0C9D0259A86E02C
:107E300020E33CEF91E0309385002093840096BBD3
:107E4000B09BFECF1D9AA8958150A9F7CC24DD24C4
:107E500088248394B5E0AB2EA1E19A2EF3E0BF2EE7
:107E6000A2D0813461F49FD0082FAFD0023811F036
:107E7000013811F484E001C083E08DD089C08234E0
:107E800011F484E103C0853419F485E0A6D080C0E4
:107E9000853579F488D0E82EFF2485D0082F10E0AE
:107EA000102F00270E291F29000F111F8ED06801E7
:107EB0006FC0863521F484E090D080E0DECF843638
:107EC00009F040C070D06FD0082F6DD080E0C81688
:107ED00080E7D80618F4F601B7BEE895C0E0D1E017
:107EE00062D089930C17E1F7F0E0CF16F0E7DF06D8
:107EF00018F0F601B7BEE89568D007B600FCFDCFD4
:107F0000A601A0E0B1E02C9130E011968C91119780
:107F100090E0982F8827822B932B1296FA010C0160
:107F200087BEE89511244E5F5F4FF1E0A038BF0790
:107F300051F7F601A7BEE89507B600FCFDCF97BE46
:107F4000E89526C08437B1F42ED02DD0F82E2BD052
:107F50003CD0F601EF2C8F010F5F1F4F84911BD097
:107F6000EA94F801C1F70894C11CD11CFA94CF0C13
:107F7000D11C0EC0853739F428D08EE10CD085E9AC
:107F80000AD08FE07ACF813511F488E018D01DD067
:107F900080E101D065CF982F8091C00085FFFCCF94
:107FA0009093C60008958091C00087FFFCCF809118
:107FB000C00084FD01C0A8958091C6000895E0E648
:107FC000F0E098E1908380830895EDDF803219F02E
:107FD00088E0F5DFFFCF84E1DECF1F93182FE3DFCA
:107FE0001150E9F7F2DF1F91089580E0E8DFEE27F6
:047FF000FF270994CA
:027FFE00040479
:0400000300007E007B
:00000001FF
